{
  "contractName": "Voter",
  "abi": [
    {
      "constant": true,
      "inputs": [
        {
          "name": "",
          "type": "uint256"
        }
      ],
      "name": "options",
      "outputs": [
        {
          "name": "",
          "type": "string"
        }
      ],
      "payable": false,
      "stateMutability": "view",
      "type": "function",
      "signature": "0x409e2205"
    },
    {
      "constant": true,
      "inputs": [
        {
          "name": "",
          "type": "uint256"
        }
      ],
      "name": "votes",
      "outputs": [
        {
          "name": "",
          "type": "uint256"
        }
      ],
      "payable": false,
      "stateMutability": "view",
      "type": "function",
      "signature": "0x5df81330"
    },
    {
      "inputs": [
        {
          "name": "_options",
          "type": "string[]"
        }
      ],
      "payable": false,
      "stateMutability": "nonpayable",
      "type": "constructor",
      "signature": "constructor"
    },
    {
      "constant": false,
      "inputs": [
        {
          "name": "optionName",
          "type": "string"
        }
      ],
      "name": "vote",
      "outputs": [],
      "payable": false,
      "stateMutability": "nonpayable",
      "type": "function",
      "signature": "0xfc36e15b"
    },
    {
      "constant": true,
      "inputs": [],
      "name": "getOptions",
      "outputs": [
        {
          "name": "",
          "type": "string[]"
        }
      ],
      "payable": false,
      "stateMutability": "view",
      "type": "function",
      "signature": "0xcc2ee196"
    },
    {
      "constant": true,
      "inputs": [],
      "name": "getVotes",
      "outputs": [
        {
          "name": "",
          "type": "uint256[]"
        }
      ],
      "payable": false,
      "stateMutability": "view",
      "type": "function",
      "signature": "0x0dc96015"
    }
  ],
  "bytecode": "0x60806040523480156200001157600080fd5b5060405162000ff438038062000ff48339810180604052620000379190810190620004c7565b80600190805190602001906200004f9291906200020c565b5060018054905060008162000065919062000273565b5060008090505b600180549050811015620002045762000084620002a2565b60408051908101604052808381526020016001151581525090506060600183815481101515620000b057fe5b906000526020600020018054600181600116156101000203166002900480601f016020809104026020016040519081016040528092919081815260200182805460018160011615610100020316600290048015620001525780601f10620001265761010080835404028352916020019162000152565b820191906000526020600020905b8154815290600101906020018083116200013457829003601f168201915b50505050509050816003826040518082805190602001908083835b6020831015156200019457805182526020820191506020810190506020830392506200016d565b6001836020036101000a03801982511681845116808217855250505050505090500191505090815260200160405180910390206000820151816000015560208201518160010160006101000a81548160ff021916908315150217905550905050505080806001019150506200006c565b5050620005c6565b82805482825590600052602060002090810192821562000260579160200282015b828111156200025f5782518290805190602001906200024e929190620002be565b50916020019190600101906200022d565b5b5090506200026f919062000345565b5090565b8154818355818111156200029d578183600052602060002091820191016200029c919062000376565b5b505050565b6040805190810160405280600081526020016000151581525090565b828054600181600116156101000203166002900490600052602060002090601f016020900481019282601f106200030157805160ff191683800117855562000332565b8280016001018555821562000332579182015b828111156200033157825182559160200191906001019062000314565b5b50905062000341919062000376565b5090565b6200037391905b808211156200036f57600081816200036591906200039e565b506001016200034c565b5090565b90565b6200039b91905b80821115620003975760008160009055506001016200037d565b5090565b90565b50805460018160011615610100020316600290046000825580601f10620003c65750620003e7565b601f016020900490600052602060002090810190620003e6919062000376565b5b50565b600082601f8301121515620003fe57600080fd5b8151620004156200040f826200053a565b6200050c565b9150818183526020840193506020810190508360005b838110156200045f578151860162000444888262000469565b8452602084019350602083019250506001810190506200042b565b5050505092915050565b600082601f83011215156200047d57600080fd5b8151620004946200048e8262000563565b6200050c565b91508082526020830160208301858383011115620004b157600080fd5b620004be83828462000590565b50505092915050565b600060208284031215620004da57600080fd5b600082015167ffffffffffffffff811115620004f557600080fd5b6200050384828501620003ea565b91505092915050565b6000604051905081810181811067ffffffffffffffff821117156200053057600080fd5b8060405250919050565b600067ffffffffffffffff8211156200055257600080fd5b602082029050602081019050919050565b600067ffffffffffffffff8211156200057b57600080fd5b601f19601f8301169050602081019050919050565b60005b83811015620005b057808201518184015260208101905062000593565b83811115620005c0576000848401525b50505050565b610a1e80620005d66000396000f3fe60806040526004361061006d576000357c0100000000000000000000000000000000000000000000000000000000900463ffffffff1680630dc9601514610072578063409e22051461009d5780635df81330146100da578063cc2ee19614610117578063fc36e15b14610142575b600080fd5b34801561007e57600080fd5b5061008761016b565b6040516100949190610830565b60405180910390f35b3480156100a957600080fd5b506100c460048036036100bf9190810190610669565b6101c3565b6040516100d19190610852565b60405180910390f35b3480156100e657600080fd5b5061010160048036036100fc9190810190610669565b61027e565b60405161010e91906108b4565b60405180910390f35b34801561012357600080fd5b5061012c6102a1565b604051610139919061080e565b60405180910390f35b34801561014e57600080fd5b5061016960048036036101649190810190610628565b61038a565b005b606060008054806020026020016040519081016040528092919081815260200182805480156101b957602002820191906000526020600020905b8154815260200190600101908083116101a5575b5050505050905090565b6001818154811015156101d257fe5b906000526020600020016000915090508054600181600116156101000203166002900480601f0160208091040260200160405190810160405280929190818152602001828054600181600116156101000203166002900480156102765780601f1061024b57610100808354040283529160200191610276565b820191906000526020600020905b81548152906001019060200180831161025957829003601f168201915b505050505081565b60008181548110151561028d57fe5b906000526020600020016000915090505481565b60606001805480602002602001604051908101604052809291908181526020016000905b82821015610381578382906000526020600020018054600181600116156101000203166002900480601f01602080910402602001604051908101604052809291908181526020018280546001816001161561010002031660029004801561036d5780601f106103425761010080835404028352916020019161036d565b820191906000526020600020905b81548152906001019060200180831161035057829003601f168201915b5050505050815260200190600101906102c5565b50505050905090565b600260003373ffffffffffffffffffffffffffffffffffffffff1673ffffffffffffffffffffffffffffffffffffffff16815260200190815260200160002060009054906101000a900460ff16151515610419576040517f08c379a000000000000000000000000000000000000000000000000000000000815260040161041090610874565b60405180910390fd5b6104216105a2565b6003826040518082805190602001908083835b6020831015156104595780518252602082019150602081019050602083039250610434565b6001836020036101000a0380198251168184511680821785525050505050509050019150509081526020016040518091039020604080519081016040529081600082015481526020016001820160009054906101000a900460ff161515151581525050905080602001511515610504576040517f08c379a00000000000000000000000000000000000000000000000000000000081526004016104fb90610894565b60405180910390fd5b60016000826000015181548110151561051957fe5b9060005260206000200154016000826000015181548110151561053857fe5b90600052602060002001819055506001600260003373ffffffffffffffffffffffffffffffffffffffff1673ffffffffffffffffffffffffffffffffffffffff16815260200190815260200160002060006101000a81548160ff0219169083151502179055505050565b6040805190810160405280600081526020016000151581525090565b600082601f83011215156105d157600080fd5b81356105e46105df826108fc565b6108cf565b9150808252602083016020830185838301111561060057600080fd5b61060b838284610991565b50505092915050565b60006106208235610987565b905092915050565b60006020828403121561063a57600080fd5b600082013567ffffffffffffffff81111561065457600080fd5b610660848285016105be565b91505092915050565b60006020828403121561067b57600080fd5b600061068984828501610614565b91505092915050565b600061069d82610942565b808452602084019350836020820285016106b685610928565b60005b848110156106ef5783830388526106d183835161075b565b92506106dc82610963565b91506020880197506001810190506106b9565b508196508694505050505092915050565b600061070b8261094d565b80845260208401935061071d83610935565b60005b8281101561074f576107338683516107ff565b61073c82610970565b9150602086019550600181019050610720565b50849250505092915050565b600061076682610958565b80845261077a8160208601602086016109a0565b610783816109d3565b602085010191505092915050565b6000601982527f4163636f756e742068617320616c726561647920766f746564000000000000006020830152604082019050919050565b6000601582527f4f7074696f6e20646f6573206e6f7420657869737400000000000000000000006020830152604082019050919050565b6108088161097d565b82525050565b600060208201905081810360008301526108288184610692565b905092915050565b6000602082019050818103600083015261084a8184610700565b905092915050565b6000602082019050818103600083015261086c818461075b565b905092915050565b6000602082019050818103600083015261088d81610791565b9050919050565b600060208201905081810360008301526108ad816107c8565b9050919050565b60006020820190506108c960008301846107ff565b92915050565b6000604051905081810181811067ffffffffffffffff821117156108f257600080fd5b8060405250919050565b600067ffffffffffffffff82111561091357600080fd5b601f19601f8301169050602081019050919050565b6000602082019050919050565b6000602082019050919050565b600081519050919050565b600081519050919050565b600081519050919050565b6000602082019050919050565b6000602082019050919050565b6000819050919050565b6000819050919050565b82818337600083830152505050565b60005b838110156109be5780820151818401526020810190506109a3565b838111156109cd576000848401525b50505050565b6000601f19601f830116905091905056fea265627a7a7230582014da831283aa594c4857b916cd404bcc1c4163a171fa096f7989a14b286f381f6c6578706572696d656e74616cf50037",
  "source": "pragma solidity ^0.5.0;\npragma experimental ABIEncoderV2;\n\ncontract Voter {\n\n    struct OptionPos{\n        uint pos;\n        bool exists;\n    }\n\n    uint[] public votes;\n    string[] public options;\n    mapping (address => bool) hasVoted;\n    mapping (string => OptionPos) posOfOption;\n    \n\n    constructor(string[] memory _options) public{\n        \n        options = _options;\n        votes.length = options.length;\n        \n        for (uint i = 0; i < options.length; i++){\n            OptionPos memory optionPos = OptionPos(i, true);\n            string  memory optionName = options[i];\n            posOfOption[optionName] = optionPos;\n        }\n    }\n    \n \n    function vote(string memory optionName) public {\n        \n        require(!hasVoted[msg.sender], \"Account has already voted\");\n        \n        OptionPos memory optionPos = posOfOption[optionName];\n        require (optionPos.exists, \"Option does not exist\");\n        \n        votes[optionPos.pos] = votes[optionPos.pos] + 1;\n        hasVoted[msg.sender] = true;\n    }\n   \n    function getOptions() public view returns (string[] memory) {\n        return options;\n    }\n\n    function getVotes() public view returns (uint[] memory) {\n        return votes;\n    }\n}",
  "sourcePath": "/Users/kishan/projects/ethereumintro/voter/contracts/Voter.sol",
  "compiler": {
    "name": "solc",
    "version": "0.5.0+commit.1d4f565a.Emscripten.clang"
  },
  "schemaVersion": "3.0.5",
  "updatedAt": "2019-04-02T08:28:15.295Z",
  "devdoc": {
    "methods": {}
  },
  "userdoc": {
    "methods": {}
  }
}