{
  "contractName": "TestCrowdFundingWithDeadline",
  "abi": [
    {
      "constant": true,
      "inputs": [],
      "name": "name",
      "outputs": [
        {
          "name": "",
          "type": "string"
        }
      ],
      "payable": false,
      "stateMutability": "view",
      "type": "function"
    },
    {
      "constant": false,
      "inputs": [],
      "name": "finishCrowdFunding",
      "outputs": [],
      "payable": false,
      "stateMutability": "nonpayable",
      "type": "function"
    },
    {
      "constant": true,
      "inputs": [],
      "name": "beneficiary",
      "outputs": [
        {
          "name": "",
          "type": "address"
        }
      ],
      "payable": false,
      "stateMutability": "view",
      "type": "function"
    },
    {
      "constant": false,
      "inputs": [],
      "name": "withdraw",
      "outputs": [],
      "payable": false,
      "stateMutability": "nonpayable",
      "type": "function"
    },
    {
      "constant": true,
      "inputs": [
        {
          "name": "",
          "type": "address"
        }
      ],
      "name": "amounts",
      "outputs": [
        {
          "name": "",
          "type": "uint256"
        }
      ],
      "payable": false,
      "stateMutability": "view",
      "type": "function"
    },
    {
      "constant": true,
      "inputs": [],
      "name": "beforeDeadline",
      "outputs": [
        {
          "name": "",
          "type": "bool"
        }
      ],
      "payable": false,
      "stateMutability": "view",
      "type": "function"
    },
    {
      "constant": true,
      "inputs": [],
      "name": "fundingDeadline",
      "outputs": [
        {
          "name": "",
          "type": "uint256"
        }
      ],
      "payable": false,
      "stateMutability": "view",
      "type": "function"
    },
    {
      "constant": true,
      "inputs": [],
      "name": "collected",
      "outputs": [
        {
          "name": "",
          "type": "bool"
        }
      ],
      "payable": false,
      "stateMutability": "view",
      "type": "function"
    },
    {
      "constant": true,
      "inputs": [],
      "name": "inProgress",
      "outputs": [
        {
          "name": "",
          "type": "bool"
        }
      ],
      "payable": false,
      "stateMutability": "view",
      "type": "function"
    },
    {
      "constant": true,
      "inputs": [],
      "name": "owner",
      "outputs": [
        {
          "name": "",
          "type": "address"
        }
      ],
      "payable": false,
      "stateMutability": "view",
      "type": "function"
    },
    {
      "constant": true,
      "inputs": [],
      "name": "targetAmount",
      "outputs": [
        {
          "name": "",
          "type": "uint256"
        }
      ],
      "payable": false,
      "stateMutability": "view",
      "type": "function"
    },
    {
      "constant": true,
      "inputs": [],
      "name": "state",
      "outputs": [
        {
          "name": "",
          "type": "uint8"
        }
      ],
      "payable": false,
      "stateMutability": "view",
      "type": "function"
    },
    {
      "constant": false,
      "inputs": [],
      "name": "contribute",
      "outputs": [],
      "payable": true,
      "stateMutability": "payable",
      "type": "function"
    },
    {
      "constant": true,
      "inputs": [],
      "name": "totalCollected",
      "outputs": [
        {
          "name": "",
          "type": "uint256"
        }
      ],
      "payable": false,
      "stateMutability": "view",
      "type": "function"
    },
    {
      "constant": false,
      "inputs": [],
      "name": "collect",
      "outputs": [],
      "payable": false,
      "stateMutability": "nonpayable",
      "type": "function"
    },
    {
      "constant": true,
      "inputs": [],
      "name": "isSuccessful",
      "outputs": [
        {
          "name": "",
          "type": "bool"
        }
      ],
      "payable": false,
      "stateMutability": "view",
      "type": "function"
    },
    {
      "constant": true,
      "inputs": [],
      "name": "getTotalCollected",
      "outputs": [
        {
          "name": "",
          "type": "uint256"
        }
      ],
      "payable": false,
      "stateMutability": "view",
      "type": "function"
    },
    {
      "inputs": [
        {
          "name": "contractName",
          "type": "string"
        },
        {
          "name": "targetAmountEth",
          "type": "uint256"
        },
        {
          "name": "durationInMin",
          "type": "uint256"
        },
        {
          "name": "beneficiaryAddress",
          "type": "address"
        }
      ],
      "payable": false,
      "stateMutability": "nonpayable",
      "type": "constructor"
    },
    {
      "anonymous": false,
      "inputs": [
        {
          "indexed": false,
          "name": "addr",
          "type": "address"
        },
        {
          "indexed": false,
          "name": "totalCollected",
          "type": "uint256"
        },
        {
          "indexed": false,
          "name": "succeeded",
          "type": "bool"
        }
      ],
      "name": "CampaignFinished",
      "type": "event"
    },
    {
      "anonymous": false,
      "inputs": [
        {
          "indexed": false,
          "name": "addr",
          "type": "address"
        },
        {
          "indexed": false,
          "name": "contribution",
          "type": "uint256"
        },
        {
          "indexed": false,
          "name": "state",
          "type": "string"
        }
      ],
      "name": "Contribution",
      "type": "event"
    },
    {
      "anonymous": false,
      "inputs": [
        {
          "indexed": false,
          "name": "totalcollection",
          "type": "uint256"
        },
        {
          "indexed": false,
          "name": "state",
          "type": "string"
        }
      ],
      "name": "Collection",
      "type": "event"
    },
    {
      "anonymous": false,
      "inputs": [
        {
          "indexed": false,
          "name": "addr",
          "type": "address"
        },
        {
          "indexed": false,
          "name": "amount",
          "type": "uint256"
        },
        {
          "indexed": false,
          "name": "state",
          "type": "string"
        }
      ],
      "name": "Withdrawn",
      "type": "event"
    },
    {
      "constant": false,
      "inputs": [
        {
          "name": "newTime",
          "type": "uint256"
        }
      ],
      "name": "setCurrentTime",
      "outputs": [],
      "payable": false,
      "stateMutability": "nonpayable",
      "type": "function"
    }
  ],
  "bytecode": "0x60806040523480156200001157600080fd5b506040516200141738038062001417833981018060405260808110156200003757600080fd5b8101908080516401000000008111156200005057600080fd5b828101905060208101848111156200006757600080fd5b81518560018202830111640100000000821117156200008557600080fd5b5050929190602001805190602001909291908051906020019092919080519060200190929190505050838383838360009080519060200190620000ca92919062000302565b5073__Utils_________________________________63d8916bb9846040518263ffffffff167c01000000000000000000000000000000000000000000000000000000000281526004018082815260200191505060206040518083038186803b1580156200013757600080fd5b505af41580156200014c573d6000803e3d6000fd5b505050506040513d60208110156200016357600080fd5b810190808051906020019092919050505060018190555073__Utils_________________________________63529b380f836040518263ffffffff167c01000000000000000000000000000000000000000000000000000000000281526004018082815260200191505060206040518083038186803b158015620001e657600080fd5b505af4158015620001fb573d6000803e3d6000fd5b505050506040513d60208110156200021257600080fd5b81019080805190602001909291905050506200023c620002f8640100000000026401000000009004565b0160028190555080600360006101000a81548173ffffffffffffffffffffffffffffffffffffffff021916908373ffffffffffffffffffffffffffffffffffffffff16021790555033600460006101000a81548173ffffffffffffffffffffffffffffffffffffffff021916908373ffffffffffffffffffffffffffffffffffffffff1602179055506000600460146101000a81548160ff02191690836003811115620002e557fe5b02179055505050505050505050620003b1565b6000600854905090565b828054600181600116156101000203166002900490600052602060002090601f016020900481019282601f106200034557805160ff191683800117855562000376565b8280016001018555821562000376579182015b828111156200037557825182559160200191906001019062000358565b5b50905062000385919062000389565b5090565b620003ae91905b80821115620003aa57600081600090555060010162000390565b5090565b90565b61105680620003c16000396000f3fe6080604052600436106100fc576000357c0100000000000000000000000000000000000000000000000000000000900463ffffffff16806306fdde0314610101578063083dca111461019157806322f8e566146101a857806338af3eed146101e35780633ccfd60b1461023a57806355a3b2c11461025157806368bc0041146102b6578063796b23bb146102e557806384bcefd414610310578063873518131461033f5780638da5cb5b1461036e578063953b8fb8146103c5578063c19d93fb146103f0578063d7bb99ba14610429578063e29eb83614610433578063e52253811461045e578063ec4cd0cf14610475578063fbe5d87e146104a4575b600080fd5b34801561010d57600080fd5b506101166104cf565b6040518080602001828103825283818151815260200191508051906020019080838360005b8381101561015657808201518184015260208101905061013b565b50505050905090810190601f1680156101835780820380516001836020036101000a031916815260200191505b509250505060405180910390f35b34801561019d57600080fd5b506101a661056d565b005b3480156101b457600080fd5b506101e1600480360360208110156101cb57600080fd5b810190808035906020019092919050505061079d565b005b3480156101ef57600080fd5b506101f86107a7565b604051808273ffffffffffffffffffffffffffffffffffffffff1673ffffffffffffffffffffffffffffffffffffffff16815260200191505060405180910390f35b34801561024657600080fd5b5061024f6107cd565b005b34801561025d57600080fd5b506102a06004803603602081101561027457600080fd5b81019080803573ffffffffffffffffffffffffffffffffffffffff169060200190929190505050610ad3565b6040518082815260200191505060405180910390f35b3480156102c257600080fd5b506102cb610aeb565b604051808215151515815260200191505060405180910390f35b3480156102f157600080fd5b506102fa610afe565b6040518082815260200191505060405180910390f35b34801561031c57600080fd5b50610325610b04565b604051808215151515815260200191505060405180910390f35b34801561034b57600080fd5b50610354610b17565b604051808215151515815260200191505060405180910390f35b34801561037a57600080fd5b50610383610b76565b604051808273ffffffffffffffffffffffffffffffffffffffff1673ffffffffffffffffffffffffffffffffffffffff16815260200191505060405180910390f35b3480156103d157600080fd5b506103da610b9c565b6040518082815260200191505060405180910390f35b3480156103fc57600080fd5b50610405610ba2565b6040518082600381111561041557fe5b60ff16815260200191505060405180910390f35b610431610bb5565b005b34801561043f57600080fd5b50610448610e22565b6040518082815260200191505060405180910390f35b34801561046a57600080fd5b50610473610e28565b005b34801561048157600080fd5b5061048a610fe7565b604051808215151515815260200191505060405180910390f35b3480156104b057600080fd5b506104b9611016565b6040518082815260200191505060405180910390f35b60008054600181600116156101000203166002900480601f0160208091040260200160405190810160405280929190818152602001828054600181600116156101000203166002900480156105655780601f1061053a57610100808354040283529160200191610565565b820191906000526020600020905b81548152906001019060200180831161054857829003601f168201915b505050505081565b600080600381111561057b57fe5b600460149054906101000a900460ff16600381111561059657fe5b14151561060b576040517f08c379a000000000000000000000000000000000000000000000000000000000815260040180806020018281038252600d8152602001807f496e76616c69642073746174650000000000000000000000000000000000000081525060200191505060405180910390fd5b610613610aeb565b1515156106ae576040517f08c379a00000000000000000000000000000000000000000000000000000000081526004018080602001828103825260288152602001807f43616e6e6f742066696e6973682063616d706169676e206265666f726520612081526020017f646561646c696e6500000000000000000000000000000000000000000000000081525060400191505060405180910390fd5b600660009054906101000a900460ff1615156106ed576001600460146101000a81548160ff021916908360038111156106e357fe5b0217905550610712565b6002600460146101000a81548160ff0219169083600381111561070c57fe5b02179055505b7f6fa7e87ebbd87ed4f1c40bba63144f68fd2bb022fb748ab3b61b5411c39bd47430600754600660009054906101000a900460ff16604051808473ffffffffffffffffffffffffffffffffffffffff1673ffffffffffffffffffffffffffffffffffffffff16815260200183815260200182151515158152602001935050505060405180910390a150565b8060088190555050565b600360009054906101000a900473ffffffffffffffffffffffffffffffffffffffff1681565b60018060038111156107db57fe5b600460149054906101000a900460ff1660038111156107f657fe5b14151561086b576040517f08c379a000000000000000000000000000000000000000000000000000000000815260040180806020018281038252600d8152602001807f496e76616c69642073746174650000000000000000000000000000000000000081525060200191505060405180910390fd5b6000600560003373ffffffffffffffffffffffffffffffffffffffff1673ffffffffffffffffffffffffffffffffffffffff16815260200190815260200160002054111515610922576040517f08c379a00000000000000000000000000000000000000000000000000000000081526004018080602001828103825260178152602001807f4e6f7468696e672077617320636f6e747269627574656400000000000000000081525060200191505060405180910390fd5b6000600560003373ffffffffffffffffffffffffffffffffffffffff1673ffffffffffffffffffffffffffffffffffffffff1681526020019081526020016000205490506000600560003373ffffffffffffffffffffffffffffffffffffffff1673ffffffffffffffffffffffffffffffffffffffff168152602001908152602001600020819055503373ffffffffffffffffffffffffffffffffffffffff166108fc829081150290604051600060405180830381858888f193505050501515610a2b5780600560003373ffffffffffffffffffffffffffffffffffffffff1673ffffffffffffffffffffffffffffffffffffffff168152602001908152602001600020819055505b7fb80d46a1fcb96f3896e038df66c1242504a8e49effecd0bf2473574707ca01213082604051808373ffffffffffffffffffffffffffffffffffffffff1673ffffffffffffffffffffffffffffffffffffffff168152602001828152602001806020018281038252600c8152602001807f4661696c65642073746174650000000000000000000000000000000000000000815250602001935050505060405180910390a15050565b60056020528060005260406000206000915090505481565b6000600254610af8611020565b10905090565b60025481565b600660009054906101000a900460ff1681565b6000806003811115610b2557fe5b600460149054906101000a900460ff166003811115610b4057fe5b1480610b71575060026003811115610b5457fe5b600460149054906101000a900460ff166003811115610b6f57fe5b145b905090565b600460009054906101000a900473ffffffffffffffffffffffffffffffffffffffff1681565b60015481565b600460149054906101000a900460ff1681565b6000806003811115610bc357fe5b600460149054906101000a900460ff166003811115610bde57fe5b141515610c53576040517f08c379a000000000000000000000000000000000000000000000000000000000815260040180806020018281038252600d8152602001807f496e76616c69642073746174650000000000000000000000000000000000000081525060200191505060405180910390fd5b610c5b610aeb565b1515610cf5576040517f08c379a00000000000000000000000000000000000000000000000000000000081526004018080602001828103825260218152602001807f4e6f20636f6e747269627574696f6e73206166746572206120646561646c696e81526020017f650000000000000000000000000000000000000000000000000000000000000081525060400191505060405180910390fd5b34600560003373ffffffffffffffffffffffffffffffffffffffff1673ffffffffffffffffffffffffffffffffffffffff16815260200190815260200160002060008282540192505081905550346007600082825401925050819055507fd7604d21739444d3bc2717034eb90601f2cf2e5987c372af627911341e6ae6253034604051808373ffffffffffffffffffffffffffffffffffffffff1673ffffffffffffffffffffffffffffffffffffffff168152602001828152602001806020018281038252600d8152602001807f4f6e676f696e6720737461746500000000000000000000000000000000000000815250602001935050505060405180910390a1600154600754101515610e1f576001600660006101000a81548160ff0219169083151502179055505b50565b60075481565b6002806003811115610e3657fe5b600460149054906101000a900460ff166003811115610e5157fe5b141515610ec6576040517f08c379a000000000000000000000000000000000000000000000000000000000815260040180806020018281038252600d8152602001807f496e76616c69642073746174650000000000000000000000000000000000000081525060200191505060405180910390fd5b600360009054906101000a900473ffffffffffffffffffffffffffffffffffffffff1673ffffffffffffffffffffffffffffffffffffffff166108fc6007549081150290604051600060405180830381858888f1935050505015610fbf576003600460146101000a81548160ff02191690836003811115610f4357fe5b02179055507fbd545cf89f1d03bcb9c8a717c49fd16f73d796f5883a7754252b716697ab323960075460405180828152602001806020018281038252600f8152602001807f53756363656564656420737461746500000000000000000000000000000000008152506020019250505060405180910390a1610fe4565b6001600460146101000a81548160ff02191690836003811115610fde57fe5b02179055505b50565b6000600380811115610ff557fe5b600460149054906101000a900460ff16600381111561101057fe5b14905090565b6000600754905090565b600060085490509056fea165627a7a72305820a7704d935eece12bc6e41db12fa713414eb29a5943f6f31683226df1b99a42930029",
  "source": "pragma solidity ^0.5.0;\nimport \"./CrowdFundingWithDeadline.sol\";\n\ncontract TestCrowdFundingWithDeadline is CrowdFundingWithDeadline {\n    uint time;\n\n    constructor(\n        string memory contractName,\n        uint targetAmountEth,\n        uint durationInMin,\n        address payable beneficiaryAddress\n    )\n        CrowdFundingWithDeadline(contractName, targetAmountEth, durationInMin, beneficiaryAddress)\n        public\n    {\n\n    }\n\n    function currentTime() internal view returns(uint) {\n        return time;\n    }\n\n    function setCurrentTime(uint newTime) public {\n        time = newTime;\n    }\n}",
  "sourcePath": "/Users/loonycorn/crowdFunding/contracts/TestCrowdFundingWithDeadline.sol",
  "compiler": {
    "name": "solc",
    "version": "0.5.0+commit.1d4f565a.Emscripten.clang"
  },
  "schemaVersion": "3.0.6",
  "updatedAt": "2019-05-23T01:44:56.283Z",
  "devdoc": {
    "methods": {}
  },
  "userdoc": {
    "methods": {}
  }
}