{
  "contractName": "Utils",
  "abi": [
    {
      "constant": true,
      "inputs": [
        {
          "name": "sumInEth",
          "type": "uint256"
        }
      ],
      "name": "etherToWei",
      "outputs": [
        {
          "name": "",
          "type": "uint256"
        }
      ],
      "payable": false,
      "stateMutability": "pure",
      "type": "function",
      "signature": "0xd8916bb9"
    },
    {
      "constant": true,
      "inputs": [
        {
          "name": "timeInMin",
          "type": "uint256"
        }
      ],
      "name": "minutesToSeconds",
      "outputs": [
        {
          "name": "",
          "type": "uint256"
        }
      ],
      "payable": false,
      "stateMutability": "pure",
      "type": "function",
      "signature": "0x529b380f"
    }
  ],
  "bytecode": "0x610139610030600b82828239805160001a6073146000811461002057610022565bfe5b5030600052607381538281f3fe7300000000000000000000000000000000000000003014608060405260043610610063576000357c0100000000000000000000000000000000000000000000000000000000900463ffffffff168063529b380f14610068578063d8916bb9146100aa575b600080fd5b6100946004803603602081101561007e57600080fd5b81019080803590602001909291905050506100ec565b6040518082815260200191505060405180910390f35b6100d6600480360360208110156100c057600080fd5b81019080803590602001909291905050506100f9565b6040518082815260200191505060405180910390f35b6000603c82029050919050565b6000670de0b6b3a76400008202905091905056fea165627a7a723058203dc45494d635f3135e9d1257bc0f4691d2f99f9e085f11fbbef83e2457db486a0029",
  "source": "pragma solidity ^0.5.0;\n\nlibrary Utils {\n\n    function etherToWei(uint sumInEth) public pure returns(uint) {\n        return sumInEth * 1 ether;\n    }\n\n    function minutesToSeconds(uint timeInMin) public pure returns(uint) {\n        return timeInMin * 1 minutes;\n    }\n}",
  "sourcePath": "/Users/loonycorn/crowdFunding/contracts/Utils.sol",
  "compiler": {
    "name": "solc",
    "version": "0.5.0+commit.1d4f565a.Emscripten.clang"
  },
  "schemaVersion": "3.0.6",
  "updatedAt": "2019-05-23T01:44:56.280Z",
  "devdoc": {
    "methods": {}
  },
  "userdoc": {
    "methods": {}
  }
}